{
  "_format": "hh-sol-artifact-1",
  "contractName": "SensorOracle",
  "sourceName": "contracts/SensorOracle.sol",
  "abi": [
    {
      "anonymous": false,
      "inputs": [
        {
          "indexed": true,
          "internalType": "address",
          "name": "sender",
          "type": "address"
        },
        {
          "indexed": true,
          "internalType": "uint256",
          "name": "time",
          "type": "uint256"
        },
        {
          "indexed": false,
          "internalType": "string",
          "name": "hash",
          "type": "string"
        }
      ],
      "name": "SensorHashStored",
      "type": "event"
    },
    {
      "inputs": [
        {
          "internalType": "uint256",
          "name": "time",
          "type": "uint256"
        },
        {
          "internalType": "string",
          "name": "dataHash",
          "type": "string"
        }
      ],
      "name": "storeHash",
      "outputs": [],
      "stateMutability": "nonpayable",
      "type": "function"
    }
  ],
  "bytecode": "0x608060405234801561001057600080fd5b5061025f806100206000396000f3fe608060405234801561001057600080fd5b506004361061002b5760003560e01c80639b6bd89c14610030575b600080fd5b61004a60048036038101906100459190610147565b61004c565b005b823373ffffffffffffffffffffffffffffffffffffffff167f9471f7f50e08b760ce3f41f982398e742c0dbd5a3793cfb53a9524d4afcea0488484604051610095929190610205565b60405180910390a3505050565b600080fd5b600080fd5b6000819050919050565b6100bf816100ac565b81146100ca57600080fd5b50565b6000813590506100dc816100b6565b92915050565b600080fd5b600080fd5b600080fd5b60008083601f840112610107576101066100e2565b5b8235905067ffffffffffffffff811115610124576101236100e7565b5b6020830191508360018202830111156101405761013f6100ec565b5b9250929050565b6000806000604084860312156101605761015f6100a2565b5b600061016e868287016100cd565b935050602084013567ffffffffffffffff81111561018f5761018e6100a7565b5b61019b868287016100f1565b92509250509250925092565b600082825260208201905092915050565b82818337600083830152505050565b6000601f19601f8301169050919050565b60006101e483856101a7565b93506101f18385846101b8565b6101fa836101c7565b840190509392505050565b600060208201905081810360008301526102208184866101d8565b9050939250505056fea26469706673582212208c56a9af90e9bc2fb093f69fb813ae1081bfaf3d46002b921e424915d1454c7664736f6c63430008140033",
  "linkReferences": {},
  "deployedLinkReferences": {}
}